{
  "_format": "hh-sol-artifact-1",
  "contractName": "CrowdFunding",
  "sourceName": "contracts/CrowdFunding.sol",
  "abi": [
    {
      "inputs": [
        {
          "internalType": "uint256",
          "name": "",
          "type": "uint256"
        }
      ],
      "name": "campaigns",
      "outputs": [
        {
          "internalType": "address",
          "name": "owner",
          "type": "address"
        },
        {
          "internalType": "string",
          "name": "title",
          "type": "string"
        },
        {
          "internalType": "string",
          "name": "description",
          "type": "string"
        },
        {
          "internalType": "uint256",
          "name": "target",
          "type": "uint256"
        },
        {
          "internalType": "uint256",
          "name": "deadline",
          "type": "uint256"
        },
        {
          "internalType": "uint256",
          "name": "amountCollected",
          "type": "uint256"
        }
      ],
      "stateMutability": "view",
      "type": "function"
    },
    {
      "inputs": [
        {
          "internalType": "address",
          "name": "_owner",
          "type": "address"
        },
        {
          "internalType": "string",
          "name": "_title",
          "type": "string"
        },
        {
          "internalType": "string",
          "name": "_description",
          "type": "string"
        },
        {
          "internalType": "uint256",
          "name": "_target",
          "type": "uint256"
        },
        {
          "internalType": "uint256",
          "name": "_deadline",
          "type": "uint256"
        }
      ],
      "name": "createCampagin",
      "outputs": [
        {
          "internalType": "uint256",
          "name": "",
          "type": "uint256"
        }
      ],
      "stateMutability": "nonpayable",
      "type": "function"
    },
    {
      "inputs": [
        {
          "internalType": "uint256",
          "name": "_id",
          "type": "uint256"
        }
      ],
      "name": "donateToCampaign",
      "outputs": [],
      "stateMutability": "payable",
      "type": "function"
    },
    {
      "inputs": [],
      "name": "getCampaigns",
      "outputs": [
        {
          "components": [
            {
              "internalType": "address",
              "name": "owner",
              "type": "address"
            },
            {
              "internalType": "string",
              "name": "title",
              "type": "string"
            },
            {
              "internalType": "string",
              "name": "description",
              "type": "string"
            },
            {
              "internalType": "uint256",
              "name": "target",
              "type": "uint256"
            },
            {
              "internalType": "uint256",
              "name": "deadline",
              "type": "uint256"
            },
            {
              "internalType": "uint256",
              "name": "amountCollected",
              "type": "uint256"
            },
            {
              "internalType": "address[]",
              "name": "donators",
              "type": "address[]"
            },
            {
              "internalType": "uint256[]",
              "name": "donations",
              "type": "uint256[]"
            }
          ],
          "internalType": "struct CrowdFunding.Campaign[]",
          "name": "",
          "type": "tuple[]"
        }
      ],
      "stateMutability": "view",
      "type": "function"
    },
    {
      "inputs": [
        {
          "internalType": "uint256",
          "name": "_id",
          "type": "uint256"
        }
      ],
      "name": "getDonators",
      "outputs": [
        {
          "internalType": "address[]",
          "name": "",
          "type": "address[]"
        },
        {
          "internalType": "uint256[]",
          "name": "",
          "type": "uint256[]"
        }
      ],
      "stateMutability": "view",
      "type": "function"
    },
    {
      "inputs": [],
      "name": "numberOfCampaigns",
      "outputs": [
        {
          "internalType": "uint256",
          "name": "",
          "type": "uint256"
        }
      ],
      "stateMutability": "view",
      "type": "function"
    }
  ],
  "bytecode": "0x6080604052600060015534801561001557600080fd5b50611791806100256000396000f3fe6080604052600436106100555760003560e01c806307ca140d1461005a5780630fa91fa914610085578063141961bc146100c357806325a9f0b31461010557806342a4fda814610142578063a6b036331461015e575b600080fd5b34801561006657600080fd5b5061006f610189565b60405161007c9190610a37565b60405180910390f35b34801561009157600080fd5b506100ac60048036038101906100a79190610a92565b61018f565b6040516100ba929190610c6d565b60405180910390f35b3480156100cf57600080fd5b506100ea60048036038101906100e59190610a92565b61029f565b6040516100fc96959493929190610d43565b60405180910390f35b34801561011157600080fd5b5061012c60048036038101906101279190610f13565b61040b565b6040516101399190610a37565b60405180910390f35b61015c60048036038101906101579190610a92565b61051f565b005b34801561016a57600080fd5b5061017361067f565b6040516101809190611275565b60405180910390f35b60015481565b6060806000808481526020019081526020016000206006016000808581526020019081526020016000206007018180548060200260200160405190810160405280929190818152602001828054801561023d57602002820191906000526020600020905b8160009054906101000a900473ffffffffffffffffffffffffffffffffffffffff1673ffffffffffffffffffffffffffffffffffffffff16815260200190600101908083116101f3575b505050505091508080548060200260200160405190810160405280929190818152602001828054801561028f57602002820191906000526020600020905b81548152602001906001019080831161027b575b5050505050905091509150915091565b60006020528060005260406000206000915090508060000160009054906101000a900473ffffffffffffffffffffffffffffffffffffffff16908060010180546102e8906112c6565b80601f0160208091040260200160405190810160405280929190818152602001828054610314906112c6565b80156103615780601f1061033657610100808354040283529160200191610361565b820191906000526020600020905b81548152906001019060200180831161034457829003601f168201915b505050505090806002018054610376906112c6565b80601f01602080910402602001604051908101604052809291908181526020018280546103a2906112c6565b80156103ef5780601f106103c4576101008083540402835291602001916103ef565b820191906000526020600020905b8154815290600101906020018083116103d257829003601f168201915b5050505050908060030154908060040154908060050154905086565b600080600080600154815260200190815260200160002090504281600401541161046a576040517f08c379a000000000000000000000000000000000000000000000000000000000815260040161046190611369565b60405180910390fd5b868160000160006101000a81548173ffffffffffffffffffffffffffffffffffffffff021916908373ffffffffffffffffffffffffffffffffffffffff160217905550858160010190816104be9190611535565b50848160020190816104d09190611535565b50838160030181905550828160040181905550600081600501819055506001600081548092919061050090611636565b919050555060018054610513919061167e565b91505095945050505050565b60003490506000806000848152602001908152602001600020905080600601339080600181540180825580915050600190039060005260206000200160009091909190916101000a81548173ffffffffffffffffffffffffffffffffffffffff021916908373ffffffffffffffffffffffffffffffffffffffff1602179055508060070182908060018154018082558091505060019003906000526020600020016000909190919091505560008160000160009054906101000a900473ffffffffffffffffffffffffffffffffffffffff1673ffffffffffffffffffffffffffffffffffffffff1683604051610614906116e3565b60006040518083038185875af1925050503d8060008114610651576040519150601f19603f3d011682016040523d82523d6000602084013e610656565b606091505b5050905080156106795782826005015461067091906116f8565b82600501819055505b50505050565b6060600060015467ffffffffffffffff81111561069f5761069e610de8565b5b6040519080825280602002602001820160405280156106d857816020015b6106c56109c3565b8152602001906001900390816106bd5790505b50905060005b6001548110156109bb576000806000838152602001908152602001600020905080604051806101000160405290816000820160009054906101000a900473ffffffffffffffffffffffffffffffffffffffff1673ffffffffffffffffffffffffffffffffffffffff1673ffffffffffffffffffffffffffffffffffffffff168152602001600182018054610771906112c6565b80601f016020809104026020016040519081016040528092919081815260200182805461079d906112c6565b80156107ea5780601f106107bf576101008083540402835291602001916107ea565b820191906000526020600020905b8154815290600101906020018083116107cd57829003601f168201915b50505050508152602001600282018054610803906112c6565b80601f016020809104026020016040519081016040528092919081815260200182805461082f906112c6565b801561087c5780601f106108515761010080835404028352916020019161087c565b820191906000526020600020905b81548152906001019060200180831161085f57829003601f168201915b505050505081526020016003820154815260200160048201548152602001600582015481526020016006820180548060200260200160405190810160405280929190818152602001828054801561092857602002820191906000526020600020905b8160009054906101000a900473ffffffffffffffffffffffffffffffffffffffff1673ffffffffffffffffffffffffffffffffffffffff16815260200190600101908083116108de575b505050505081526020016007820180548060200260200160405190810160405280929190818152602001828054801561098057602002820191906000526020600020905b81548152602001906001019080831161096c575b50505050508152505083838151811061099c5761099b61172c565b5b60200260200101819052505080806109b390611636565b9150506106de565b508091505090565b604051806101000160405280600073ffffffffffffffffffffffffffffffffffffffff168152602001606081526020016060815260200160008152602001600081526020016000815260200160608152602001606081525090565b6000819050919050565b610a3181610a1e565b82525050565b6000602082019050610a4c6000830184610a28565b92915050565b6000604051905090565b600080fd5b600080fd5b610a6f81610a1e565b8114610a7a57600080fd5b50565b600081359050610a8c81610a66565b92915050565b600060208284031215610aa857610aa7610a5c565b5b6000610ab684828501610a7d565b91505092915050565b600081519050919050565b600082825260208201905092915050565b6000819050602082019050919050565b600073ffffffffffffffffffffffffffffffffffffffff82169050919050565b6000610b1682610aeb565b9050919050565b610b2681610b0b565b82525050565b6000610b388383610b1d565b60208301905092915050565b6000602082019050919050565b6000610b5c82610abf565b610b668185610aca565b9350610b7183610adb565b8060005b83811015610ba2578151610b898882610b2c565b9750610b9483610b44565b925050600181019050610b75565b5085935050505092915050565b600081519050919050565b600082825260208201905092915050565b6000819050602082019050919050565b610be481610a1e565b82525050565b6000610bf68383610bdb565b60208301905092915050565b6000602082019050919050565b6000610c1a82610baf565b610c248185610bba565b9350610c2f83610bcb565b8060005b83811015610c60578151610c478882610bea565b9750610c5283610c02565b925050600181019050610c33565b5085935050505092915050565b60006040820190508181036000830152610c878185610b51565b90508181036020830152610c9b8184610c0f565b90509392505050565b610cad81610b0b565b82525050565b600081519050919050565b600082825260208201905092915050565b60005b83811015610ced578082015181840152602081019050610cd2565b60008484015250505050565b6000601f19601f8301169050919050565b6000610d1582610cb3565b610d1f8185610cbe565b9350610d2f818560208601610ccf565b610d3881610cf9565b840191505092915050565b600060c082019050610d586000830189610ca4565b8181036020830152610d6a8188610d0a565b90508181036040830152610d7e8187610d0a565b9050610d8d6060830186610a28565b610d9a6080830185610a28565b610da760a0830184610a28565b979650505050505050565b610dbb81610b0b565b8114610dc657600080fd5b50565b600081359050610dd881610db2565b92915050565b600080fd5b600080fd5b7f4e487b7100000000000000000000000000000000000000000000000000000000600052604160045260246000fd5b610e2082610cf9565b810181811067ffffffffffffffff82111715610e3f57610e3e610de8565b5b80604052505050565b6000610e52610a52565b9050610e5e8282610e17565b919050565b600067ffffffffffffffff821115610e7e57610e7d610de8565b5b610e8782610cf9565b9050602081019050919050565b82818337600083830152505050565b6000610eb6610eb184610e63565b610e48565b905082815260208101848484011115610ed257610ed1610de3565b5b610edd848285610e94565b509392505050565b600082601f830112610efa57610ef9610dde565b5b8135610f0a848260208601610ea3565b91505092915050565b600080600080600060a08688031215610f2f57610f2e610a5c565b5b6000610f3d88828901610dc9565b955050602086013567ffffffffffffffff811115610f5e57610f5d610a61565b5b610f6a88828901610ee5565b945050604086013567ffffffffffffffff811115610f8b57610f8a610a61565b5b610f9788828901610ee5565b9350506060610fa888828901610a7d565b9250506080610fb988828901610a7d565b9150509295509295909350565b600081519050919050565b600082825260208201905092915050565b6000819050602082019050919050565b600082825260208201905092915050565b600061100e82610cb3565b6110188185610ff2565b9350611028818560208601610ccf565b61103181610cf9565b840191505092915050565b600082825260208201905092915050565b600061105882610abf565b611062818561103c565b935061106d83610adb565b8060005b8381101561109e5781516110858882610b2c565b975061109083610b44565b925050600181019050611071565b5085935050505092915050565b600082825260208201905092915050565b60006110c782610baf565b6110d181856110ab565b93506110dc83610bcb565b8060005b8381101561110d5781516110f48882610bea565b97506110ff83610c02565b9250506001810190506110e0565b5085935050505092915050565b6000610100830160008301516111336000860182610b1d565b506020830151848203602086015261114b8282611003565b915050604083015184820360408601526111658282611003565b915050606083015161117a6060860182610bdb565b50608083015161118d6080860182610bdb565b5060a08301516111a060a0860182610bdb565b5060c083015184820360c08601526111b8828261104d565b91505060e083015184820360e08601526111d282826110bc565b9150508091505092915050565b60006111eb838361111a565b905092915050565b6000602082019050919050565b600061120b82610fc6565b6112158185610fd1565b93508360208202850161122785610fe2565b8060005b85811015611263578484038952815161124485826111df565b945061124f836111f3565b925060208a0199505060018101905061122b565b50829750879550505050505092915050565b6000602082019050818103600083015261128f8184611200565b905092915050565b7f4e487b7100000000000000000000000000000000000000000000000000000000600052602260045260246000fd5b600060028204905060018216806112de57607f821691505b6020821081036112f1576112f0611297565b5b50919050565b7f54686520646561646c696e652073686f756c642062652061206461746520696e60008201527f20746865206675747572652e0000000000000000000000000000000000000000602082015250565b6000611353602c83610cbe565b915061135e826112f7565b604082019050919050565b6000602082019050818103600083015261138281611346565b9050919050565b60008190508160005260206000209050919050565b60006020601f8301049050919050565b600082821b905092915050565b6000600883026113eb7fffffffffffffffffffffffffffffffffffffffffffffffffffffffffffffffff826113ae565b6113f586836113ae565b95508019841693508086168417925050509392505050565b6000819050919050565b600061143261142d61142884610a1e565b61140d565b610a1e565b9050919050565b6000819050919050565b61144c83611417565b61146061145882611439565b8484546113bb565b825550505050565b600090565b611475611468565b611480818484611443565b505050565b5b818110156114a45761149960008261146d565b600181019050611486565b5050565b601f8211156114e9576114ba81611389565b6114c38461139e565b810160208510156114d2578190505b6114e66114de8561139e565b830182611485565b50505b505050565b600082821c905092915050565b600061150c600019846008026114ee565b1980831691505092915050565b600061152583836114fb565b9150826002028217905092915050565b61153e82610cb3565b67ffffffffffffffff81111561155757611556610de8565b5b61156182546112c6565b61156c8282856114a8565b600060209050601f83116001811461159f576000841561158d578287015190505b6115978582611519565b8655506115ff565b601f1984166115ad86611389565b60005b828110156115d5578489015182556001820191506020850194506020810190506115b0565b868310156115f257848901516115ee601f8916826114fb565b8355505b6001600288020188555050505b505050505050565b7f4e487b7100000000000000000000000000000000000000000000000000000000600052601160045260246000fd5b600061164182610a1e565b91507fffffffffffffffffffffffffffffffffffffffffffffffffffffffffffffffff820361167357611672611607565b5b600182019050919050565b600061168982610a1e565b915061169483610a1e565b92508282039050818111156116ac576116ab611607565b5b92915050565b600081905092915050565b50565b60006116cd6000836116b2565b91506116d8826116bd565b600082019050919050565b60006116ee826116c0565b9150819050919050565b600061170382610a1e565b915061170e83610a1e565b925082820190508082111561172657611725611607565b5b92915050565b7f4e487b7100000000000000000000000000000000000000000000000000000000600052603260045260246000fdfea264697066735822122057df2e5ac0d07bbb84d4be8aad94693bf41ecf7fbdab244e3c705da396dd201b64736f6c63430008120033",
  "linkReferences": {},
  "deployedLinkReferences": {}
}